8=FIX.4.4|9=82|35=F|49=BlazarQuant|56=Broker|52=20160325-23:03:39.526|11=1005|41=1004|55=KO|59=0|10=208|
8=FIX.4.4|9=92|35=D|49=BlazarQuant|56=Broker|52=20160325-22:52:30.530|11=1001|38=200|40=1|54=1|55=IBM|59=0|10=124
8=FIX.4.4|9=173|35=8|49=Broker|56=BlazarQuant|52=20160325-22:52:30.532|6=0|11=1001|14=0|17=1|20=0|31=0|32=0|37=1001|38=200|39=0|40=1|54=1|55=IBM|59=0|60=20160325-22:52:30.534|150=0|151=200|10=228
8=FIX.4.4|9=106|35=G|49=BlazarQuant|56=Broker|52=20160325-22:52:12.222|11=1003|41=1002|38=100|40=2|44=450|54=1|55=GE|59=0|10=004
8=FIX.4.4|9=148|35=D|34=1080|49=TESTBUY1|52=20180920-18:14:19.508|56=TESTSELL1|11=636730640278898634|15=USD|21=2|38=7000|40=1|54=1|55=MSFT|60=20180920-18:14:19.492|10=092
8=FIX.4.4|9=289|35=8|34=1090|49=TESTSELL1|52=20180920-18:23:53.671|56=TESTBUY1|6=113.35|11=636730640278898634|14=3500.0000000000|15=USD|17=20636730646335310000|21=2|31=113.35|32=3500|37=20636730646335310000|38=7000|39=1|40=1|54=1|55=MSFT|60=20180920-18:23:53.531|150=F|151=3500|453=1|448=BRK2|447=D|452=1|10=151|
8=FIX.4.4|9=75|35=A|34=1092|49=TESTBUY1|52=20180920-18:24:59.643|56=TESTSELL1|98=0|108=60|10=178|
8=FIX.4.4|9=63|35=5|34=1091|49=TESTBUY1|52=20180920-18:24:58.675|56=TESTSELL1|10=138|
8=FIX.4.4|9=82|35=F|49=BlazarQuant|56=Broker|52=20160325-23:03:39.526|11=1005|41=1004|55=KO|59=0|10=208|
8=FIX.4.4|9=92|35=D|49=BlazarQuant|56=Broker|52=20160325-22:52:30.530|11=1001|38=200|40=1|54=1|55=IBM|59=0|10=124
8=FIX.4.4|9=173|35=8|49=Broker|56=BlazarQuant|52=20160325-22:52:30.532|6=0|11=1001|14=0|17=1|20=0|31=0|32=0|37=1001|38=200|39=0|40=1|54=1|55=IBM|59=0|60=20160325-22:52:30.534|150=0|151=200|10=228
8=FIX.4.4|9=106|35=G|49=BlazarQuant|56=Broker|52=20160325-22:52:12.222|11=1003|41=1002|38=100|40=2|44=450|54=1|55=GE|59=0|10=004
8=FIX.4.4|9=148|35=D|34=1080|49=TESTBUY1|52=20180920-18:14:19.508|56=TESTSELL1|11=636730640278898634|15=USD|21=2|38=7000|40=1|54=1|55=MSFT|60=20180920-18:14:19.492|10=092
8=FIX.4.4|9=289|35=8|34=1090|49=TESTSELL1|52=20180920-18:23:53.671|56=TESTBUY1|6=113.35|11=636730640278898634|14=3500.0000000000|15=USD|17=20636730646335310000|21=2|31=113.35|32=3500|37=20636730646335310000|38=7000|39=1|40=1|54=1|55=MSFT|60=20180920-18:23:53.531|150=F|151=3500|453=1|448=BRK2|447=D|452=1|10=151|
8=FIX.4.4|9=75|35=A|34=1092|49=TESTBUY1|52=20180920-18:24:59.643|56=TESTSELL1|98=0|108=60|10=178|
8=FIX.4.4|9=63|35=5|34=1091|49=TESTBUY1|52=20180920-18:24:58.675|56=TESTSELL1|10=138|
8=FIX.4.4|9=82|35=F|49=BlazarQuant|56=Broker|52=20160325-23:03:39.526|11=1005|41=1004|55=KO|59=0|10=208|
8=FIX.4.4|9=92|35=D|49=BlazarQuant|56=Broker|52=20160325-22:52:30.530|11=1001|38=200|40=1|54=1|55=IBM|59=0|10=124
8=FIX.4.4|9=173|35=8|49=Broker|56=BlazarQuant|52=20160325-22:52:30.532|6=0|11=1001|14=0|17=1|20=0|31=0|32=0|37=1001|38=200|39=0|40=1|54=1|55=IBM|59=0|60=20160325-22:52:30.534|150=0|151=200|10=228
8=FIX.4.4|9=106|35=G|49=BlazarQuant|56=Broker|52=20160325-22:52:12.222|11=1003|41=1002|38=100|40=2|44=450|54=1|55=GE|59=0|10=004
8=FIX.4.4|9=148|35=D|34=1080|49=TESTBUY1|52=20180920-18:14:19.508|56=TESTSELL1|11=636730640278898634|15=USD|21=2|38=7000|40=1|54=1|55=MSFT|60=20180920-18:14:19.492|10=092
8=FIX.4.4|9=289|35=8|34=1090|49=TESTSELL1|52=20180920-18:23:53.671|56=TESTBUY1|6=113.35|11=636730640278898634|14=3500.0000000000|15=USD|17=20636730646335310000|21=2|31=113.35|32=3500|37=20636730646335310000|38=7000|39=1|40=1|54=1|55=MSFT|60=20180920-18:23:53.531|150=F|151=3500|453=1|448=BRK2|447=D|452=1|10=151|
8=FIX.4.4|9=75|35=A|34=1092|49=TESTBUY1|52=20180920-18:24:59.643|56=TESTSELL1|98=0|108=60|10=178|
8=FIX.4.4|9=63|35=5|34=1091|49=TESTBUY1|52=20180920-18:24:58.675|56=TESTSELL1|10=138|
8=FIX.4.4|9=82|35=F|49=BlazarQuant|56=Broker|52=20160325-23:03:39.526|11=1005|41=1004|55=KO|59=0|10=208|
8=FIX.4.4|9=92|35=D|49=BlazarQuant|56=Broker|52=20160325-22:52:30.530|11=1001|38=200|40=1|54=1|55=IBM|59=0|10=124
8=FIX.4.4|9=173|35=8|49=Broker|56=BlazarQuant|52=20160325-22:52:30.532|6=0|11=1001|14=0|17=1|20=0|31=0|32=0|37=1001|38=200|39=0|40=1|54=1|55=IBM|59=0|60=20160325-22:52:30.534|150=0|151=200|10=228
8=FIX.4.4|9=106|35=G|49=BlazarQuant|56=Broker|52=20160325-22:52:12.222|11=1003|41=1002|38=100|40=2|44=450|54=1|55=GE|59=0|10=004
8=FIX.4.4|9=148|35=D|34=1080|49=TESTBUY1|52=20180920-18:14:19.508|56=TESTSELL1|11=636730640278898634|15=USD|21=2|38=7000|40=1|54=1|55=MSFT|60=20180920-18:14:19.492|10=092
8=FIX.4.4|9=289|35=8|34=1090|49=TESTSELL1|52=20180920-18:23:53.671|56=TESTBUY1|6=113.35|11=636730640278898634|14=3500.0000000000|15=USD|17=20636730646335310000|21=2|31=113.35|32=3500|37=20636730646335310000|38=7000|39=1|40=1|54=1|55=MSFT|60=20180920-18:23:53.531|150=F|151=3500|453=1|448=BRK2|447=D|452=1|10=151|
8=FIX.4.4|9=75|35=A|34=1092|49=TESTBUY1|52=20180920-18:24:59.643|56=TESTSELL1|98=0|108=60|10=178|
8=FIX.4.4|9=63|35=5|34=1091|49=TESTBUY1|52=20180920-18:24:58.675|56=TESTSELL1|10=138|
8=FIX.4.4|9=82|35=F|49=BlazarQuant|56=Broker|52=20160325-23:03:39.526|11=1005|41=1004|55=KO|59=0|10=208|
8=FIX.4.4|9=92|35=D|49=BlazarQuant|56=Broker|52=20160325-22:52:30.530|11=1001|38=200|40=1|54=1|55=IBM|59=0|10=124
8=FIX.4.4|9=173|35=8|49=Broker|56=BlazarQuant|52=20160325-22:52:30.532|6=0|11=1001|14=0|17=1|20=0|31=0|32=0|37=1001|38=200|39=0|40=1|54=1|55=IBM|59=0|60=20160325-22:52:30.534|150=0|151=200|10=228
8=FIX.4.4|9=106|35=G|49=BlazarQuant|56=Broker|52=20160325-22:52:12.222|11=1003|41=1002|38=100|40=2|44=450|54=1|55=GE|59=0|10=004
8=FIX.4.4|9=148|35=D|34=1080|49=TESTBUY1|52=20180920-18:14:19.508|56=TESTSELL1|11=636730640278898634|15=USD|21=2|38=7000|40=1|54=1|55=MSFT|60=20180920-18:14:19.492|10=092
8=FIX.4.4|9=289|35=8|34=1090|49=TESTSELL1|52=20180920-18:23:53.671|56=TESTBUY1|6=113.35|11=636730640278898634|14=3500.0000000000|15=USD|17=20636730646335310000|21=2|31=113.35|32=3500|37=20636730646335310000|38=7000|39=1|40=1|54=1|55=MSFT|60=20180920-18:23:53.531|150=F|151=3500|453=1|448=BRK2|447=D|452=1|10=151|
8=FIX.4.4|9=75|35=A|34=1092|49=TESTBUY1|52=20180920-18:24:59.643|56=TESTSELL1|98=0|108=60|10=178|
8=FIX.4.4|9=63|35=5|34=1091|49=TESTBUY1|52=20180920-18:24:58.675|56=TESTSELL1|10=138|
8=FIX.4.4|9=82|35=F|49=BlazarQuant|56=Broker|52=20160325-23:03:39.526|11=1005|41=1004|55=KO|59=0|10=208|
8=FIX.4.4|9=92|35=D|49=BlazarQuant|56=Broker|52=20160325-22:52:30.530|11=1001|38=200|40=1|54=1|55=IBM|59=0|10=124
8=FIX.4.4|9=173|35=8|49=Broker|56=BlazarQuant|52=20160325-22:52:30.532|6=0|11=1001|14=0|17=1|20=0|31=0|32=0|37=1001|38=200|39=0|40=1|54=1|55=IBM|59=0|60=20160325-22:52:30.534|150=0|151=200|10=228
8=FIX.4.4|9=106|35=G|49=BlazarQuant|56=Broker|52=20160325-22:52:12.222|11=1003|41=1002|38=100|40=2|44=450|54=1|55=GE|59=0|10=004
8=FIX.4.4|9=148|35=D|34=1080|49=TESTBUY1|52=20180920-18:14:19.508|56=TESTSELL1|11=636730640278898634|15=USD|21=2|38=7000|40=1|54=1|55=MSFT|60=20180920-18:14:19.492|10=092
8=FIX.4.4|9=289|35=8|34=1090|49=TESTSELL1|52=20180920-18:23:53.671|56=TESTBUY1|6=113.35|11=636730640278898634|14=3500.0000000000|15=USD|17=20636730646335310000|21=2|31=113.35|32=3500|37=20636730646335310000|38=7000|39=1|40=1|54=1|55=MSFT|60=20180920-18:23:53.531|150=F|151=3500|453=1|448=BRK2|447=D|452=1|10=151|
8=FIX.4.4|9=75|35=A|34=1092|49=TESTBUY1|52=20180920-18:24:59.643|56=TESTSELL1|98=0|108=60|10=178|
8=FIX.4.4|9=63|35=5|34=1091|49=TESTBUY1|52=20180920-18:24:58.675|56=TESTSELL1|10=138|
8=FIX.4.4|9=82|35=F|49=BlazarQuant|56=Broker|52=20160325-23:03:39.526|11=1005|41=1004|55=KO|59=0|10=208|
8=FIX.4.4|9=92|35=D|49=BlazarQuant|56=Broker|52=20160325-22:52:30.530|11=1001|38=200|40=1|54=1|55=IBM|59=0|10=124
8=FIX.4.4|9=173|35=8|49=Broker|56=BlazarQuant|52=20160325-22:52:30.532|6=0|11=1001|14=0|17=1|20=0|31=0|32=0|37=1001|38=200|39=0|40=1|54=1|55=IBM|59=0|60=20160325-22:52:30.534|150=0|151=200|10=228
8=FIX.4.4|9=106|35=G|49=BlazarQuant|56=Broker|52=20160325-22:52:12.222|11=1003|41=1002|38=100|40=2|44=450|54=1|55=GE|59=0|10=004
8=FIX.4.4|9=148|35=D|34=1080|49=TESTBUY1|52=20180920-18:14:19.508|56=TESTSELL1|11=636730640278898634|15=USD|21=2|38=7000|40=1|54=1|55=MSFT|60=20180920-18:14:19.492|10=092
8=FIX.4.4|9=289|35=8|34=1090|49=TESTSELL1|52=20180920-18:23:53.671|56=TESTBUY1|6=113.35|11=636730640278898634|14=3500.0000000000|15=USD|17=20636730646335310000|21=2|31=113.35|32=3500|37=20636730646335310000|38=7000|39=1|40=1|54=1|55=MSFT|60=20180920-18:23:53.531|150=F|151=3500|453=1|448=BRK2|447=D|452=1|10=151|
8=FIX.4.4|9=75|35=A|34=1092|49=TESTBUY1|52=20180920-18:24:59.643|56=TESTSELL1|98=0|108=60|10=178|
8=FIX.4.4|9=63|35=5|34=1091|49=TESTBUY1|52=20180920-18:24:58.675|56=TESTSELL1|10=138|
8=FIX.4.4|9=82|35=F|49=BlazarQuant|56=Broker|52=20160325-23:03:39.526|11=1005|41=1004|55=KO|59=0|10=208|
8=FIX.4.4|9=92|35=D|49=BlazarQuant|56=Broker|52=20160325-22:52:30.530|11=1001|38=200|40=1|54=1|55=IBM|59=0|10=124
8=FIX.4.4|9=173|35=8|49=Broker|56=BlazarQuant|52=20160325-22:52:30.532|6=0|11=1001|14=0|17=1|20=0|31=0|32=0|37=1001|38=200|39=0|40=1|54=1|55=IBM|59=0|60=20160325-22:52:30.534|150=0|151=200|10=228
8=FIX.4.4|9=106|35=G|49=BlazarQuant|56=Broker|52=20160325-22:52:12.222|11=1003|41=1002|38=100|40=2|44=450|54=1|55=GE|59=0|10=004
8=FIX.4.4|9=148|35=D|34=1080|49=TESTBUY1|52=20180920-18:14:19.508|56=TESTSELL1|11=636730640278898634|15=USD|21=2|38=7000|40=1|54=1|55=MSFT|60=20180920-18:14:19.492|10=092
8=FIX.4.4|9=289|35=8|34=1090|49=TESTSELL1|52=20180920-18:23:53.671|56=TESTBUY1|6=113.35|11=636730640278898634|14=3500.0000000000|15=USD|17=20636730646335310000|21=2|31=113.35|32=3500|37=20636730646335310000|38=7000|39=1|40=1|54=1|55=MSFT|60=20180920-18:23:53.531|150=F|151=3500|453=1|448=BRK2|447=D|452=1|10=151|
8=FIX.4.4|9=75|35=A|34=1092|49=TESTBUY1|52=20180920-18:24:59.643|56=TESTSELL1|98=0|108=60|10=178|
8=FIX.4.4|9=63|35=5|34=1091|49=TESTBUY1|52=20180920-18:24:58.675|56=TESTSELL1|10=138|
8=FIX.4.4|9=82|35=F|49=BlazarQuant|56=Broker|52=20160325-23:03:39.526|11=1005|41=1004|55=KO|59=0|10=208|
8=FIX.4.4|9=92|35=D|49=BlazarQuant|56=Broker|52=20160325-22:52:30.530|11=1001|38=200|40=1|54=1|55=IBM|59=0|10=124
8=FIX.4.4|9=173|35=8|49=Broker|56=BlazarQuant|52=20160325-22:52:30.532|6=0|11=1001|14=0|17=1|20=0|31=0|32=0|37=1001|38=200|39=0|40=1|54=1|55=IBM|59=0|60=20160325-22:52:30.534|150=0|151=200|10=228
8=FIX.4.4|9=106|35=G|49=BlazarQuant|56=Broker|52=20160325-22:52:12.222|11=1003|41=1002|38=100|40=2|44=450|54=1|55=GE|59=0|10=004
8=FIX.4.4|9=148|35=D|34=1080|49=TESTBUY1|52=20180920-18:14:19.508|56=TESTSELL1|11=636730640278898634|15=USD|21=2|38=7000|40=1|54=1|55=MSFT|60=20180920-18:14:19.492|10=092
8=FIX.4.4|9=289|35=8|34=1090|49=TESTSELL1|52=20180920-18:23:53.671|56=TESTBUY1|6=113.35|11=636730640278898634|14=3500.0000000000|15=USD|17=20636730646335310000|21=2|31=113.35|32=3500|37=20636730646335310000|38=7000|39=1|40=1|54=1|55=MSFT|60=20180920-18:23:53.531|150=F|151=3500|453=1|448=BRK2|447=D|452=1|10=151|
8=FIX.4.4|9=75|35=A|34=1092|49=TESTBUY1|52=20180920-18:24:59.643|56=TESTSELL1|98=0|108=60|10=178|
8=FIX.4.4|9=63|35=5|34=1091|49=TESTBUY1|52=20180920-18:24:58.675|56=TESTSELL1|10=138|
8=FIX.4.4|9=82|35=F|49=BlazarQuant|56=Broker|52=20160325-23:03:39.526|11=1005|41=1004|55=KO|59=0|10=208|
8=FIX.4.4|9=92|35=D|49=BlazarQuant|56=Broker|52=20160325-22:52:30.530|11=1001|38=200|40=1|54=1|55=IBM|59=0|10=124
8=FIX.4.4|9=173|35=8|49=Broker|56=BlazarQuant|52=20160325-22:52:30.532|6=0|11=1001|14=0|17=1|20=0|31=0|32=0|37=1001|38=200|39=0|40=1|54=1|55=IBM|59=0|60=20160325-22:52:30.534|150=0|151=200|10=228
8=FIX.4.4|9=106|35=G|49=BlazarQuant|56=Broker|52=20160325-22:52:12.222|11=1003|41=1002|38=100|40=2|44=450|54=1|55=GE|59=0|10=004
8=FIX.4.4|9=148|35=D|34=1080|49=TESTBUY1|52=20180920-18:14:19.508|56=TESTSELL1|11=636730640278898634|15=USD|21=2|38=7000|40=1|54=1|55=MSFT|60=20180920-18:14:19.492|10=092
8=FIX.4.4|9=289|35=8|34=1090|49=TESTSELL1|52=20180920-18:23:53.671|56=TESTBUY1|6=113.35|11=636730640278898634|14=3500.0000000000|15=USD|17=20636730646335310000|21=2|31=113.35|32=3500|37=20636730646335310000|38=7000|39=1|40=1|54=1|55=MSFT|60=20180920-18:23:53.531|150=F|151=3500|453=1|448=BRK2|447=D|452=1|10=151|
8=FIX.4.4|9=75|35=A|34=1092|49=TESTBUY1|52=20180920-18:24:59.643|56=TESTSELL1|98=0|108=60|10=178|
8=FIX.4.4|9=63|35=5|34=1091|49=TESTBUY1|52=20180920-18:24:58.675|56=TESTSELL1|10=138|